{
  "_format": "hh-sol-artifact-1",
  "contractName": "EmotionalShapes",
  "sourceName": "contracts/EmotionalShapes.sol",
  "abi": [
    {
      "inputs": [],
      "stateMutability": "nonpayable",
      "type": "constructor"
    },
    {
      "anonymous": false,
      "inputs": [
        {
          "indexed": true,
          "internalType": "address",
          "name": "owner",
          "type": "address"
        },
        {
          "indexed": true,
          "internalType": "address",
          "name": "approved",
          "type": "address"
        },
        {
          "indexed": true,
          "internalType": "uint256",
          "name": "tokenId",
          "type": "uint256"
        }
      ],
      "name": "Approval",
      "type": "event"
    },
    {
      "anonymous": false,
      "inputs": [
        {
          "indexed": true,
          "internalType": "address",
          "name": "owner",
          "type": "address"
        },
        {
          "indexed": true,
          "internalType": "address",
          "name": "operator",
          "type": "address"
        },
        {
          "indexed": false,
          "internalType": "bool",
          "name": "approved",
          "type": "bool"
        }
      ],
      "name": "ApprovalForAll",
      "type": "event"
    },
    {
      "anonymous": false,
      "inputs": [
        {
          "indexed": true,
          "internalType": "address",
          "name": "from",
          "type": "address"
        },
        {
          "indexed": true,
          "internalType": "address",
          "name": "to",
          "type": "address"
        },
        {
          "indexed": true,
          "internalType": "uint256",
          "name": "tokenId",
          "type": "uint256"
        }
      ],
      "name": "Transfer",
      "type": "event"
    },
    {
      "inputs": [
        {
          "internalType": "address",
          "name": "to",
          "type": "address"
        },
        {
          "internalType": "uint256",
          "name": "tokenId",
          "type": "uint256"
        }
      ],
      "name": "approve",
      "outputs": [],
      "stateMutability": "nonpayable",
      "type": "function"
    },
    {
      "inputs": [
        {
          "internalType": "address",
          "name": "owner",
          "type": "address"
        }
      ],
      "name": "balanceOf",
      "outputs": [
        {
          "internalType": "uint256",
          "name": "",
          "type": "uint256"
        }
      ],
      "stateMutability": "view",
      "type": "function"
    },
    {
      "inputs": [
        {
          "internalType": "uint256",
          "name": "tokenId",
          "type": "uint256"
        }
      ],
      "name": "getApproved",
      "outputs": [
        {
          "internalType": "address",
          "name": "",
          "type": "address"
        }
      ],
      "stateMutability": "view",
      "type": "function"
    },
    {
      "inputs": [
        {
          "internalType": "address",
          "name": "owner",
          "type": "address"
        },
        {
          "internalType": "address",
          "name": "operator",
          "type": "address"
        }
      ],
      "name": "isApprovedForAll",
      "outputs": [
        {
          "internalType": "bool",
          "name": "",
          "type": "bool"
        }
      ],
      "stateMutability": "view",
      "type": "function"
    },
    {
      "inputs": [
        {
          "internalType": "address",
          "name": "to",
          "type": "address"
        }
      ],
      "name": "mint",
      "outputs": [
        {
          "internalType": "uint256",
          "name": "",
          "type": "uint256"
        }
      ],
      "stateMutability": "nonpayable",
      "type": "function"
    },
    {
      "inputs": [],
      "name": "name",
      "outputs": [
        {
          "internalType": "string",
          "name": "",
          "type": "string"
        }
      ],
      "stateMutability": "view",
      "type": "function"
    },
    {
      "inputs": [
        {
          "internalType": "uint256",
          "name": "tokenId",
          "type": "uint256"
        }
      ],
      "name": "ownerOf",
      "outputs": [
        {
          "internalType": "address",
          "name": "",
          "type": "address"
        }
      ],
      "stateMutability": "view",
      "type": "function"
    },
    {
      "inputs": [
        {
          "internalType": "address",
          "name": "from",
          "type": "address"
        },
        {
          "internalType": "address",
          "name": "to",
          "type": "address"
        },
        {
          "internalType": "uint256",
          "name": "tokenId",
          "type": "uint256"
        }
      ],
      "name": "safeTransferFrom",
      "outputs": [],
      "stateMutability": "nonpayable",
      "type": "function"
    },
    {
      "inputs": [
        {
          "internalType": "address",
          "name": "from",
          "type": "address"
        },
        {
          "internalType": "address",
          "name": "to",
          "type": "address"
        },
        {
          "internalType": "uint256",
          "name": "tokenId",
          "type": "uint256"
        },
        {
          "internalType": "bytes",
          "name": "_data",
          "type": "bytes"
        }
      ],
      "name": "safeTransferFrom",
      "outputs": [],
      "stateMutability": "nonpayable",
      "type": "function"
    },
    {
      "inputs": [
        {
          "internalType": "address",
          "name": "operator",
          "type": "address"
        },
        {
          "internalType": "bool",
          "name": "approved",
          "type": "bool"
        }
      ],
      "name": "setApprovalForAll",
      "outputs": [],
      "stateMutability": "nonpayable",
      "type": "function"
    },
    {
      "inputs": [
        {
          "internalType": "bytes4",
          "name": "interfaceId",
          "type": "bytes4"
        }
      ],
      "name": "supportsInterface",
      "outputs": [
        {
          "internalType": "bool",
          "name": "",
          "type": "bool"
        }
      ],
      "stateMutability": "view",
      "type": "function"
    },
    {
      "inputs": [],
      "name": "symbol",
      "outputs": [
        {
          "internalType": "string",
          "name": "",
          "type": "string"
        }
      ],
      "stateMutability": "view",
      "type": "function"
    },
    {
      "inputs": [
        {
          "internalType": "uint256",
          "name": "tokenId",
          "type": "uint256"
        }
      ],
      "name": "tokenURI",
      "outputs": [
        {
          "internalType": "string",
          "name": "",
          "type": "string"
        }
      ],
      "stateMutability": "view",
      "type": "function"
    },
    {
      "inputs": [
        {
          "internalType": "address",
          "name": "from",
          "type": "address"
        },
        {
          "internalType": "address",
          "name": "to",
          "type": "address"
        },
        {
          "internalType": "uint256",
          "name": "tokenId",
          "type": "uint256"
        }
      ],
      "name": "transferFrom",
      "outputs": [],
      "stateMutability": "nonpayable",
      "type": "function"
    }
  ],
  "bytecode": "0x60806040523480156200001157600080fd5b506040518060400160405280600f81526020017f456d6f74696f6e616c53686170657300000000000000000000000000000000008152506040518060400160405280600381526020017f4553530000000000000000000000000000000000000000000000000000000000815250816000908051906020019062000096929190620000b8565b508060019080519060200190620000af929190620000b8565b505050620001cd565b828054620000c69062000168565b90600052602060002090601f016020900481019282620000ea576000855562000136565b82601f106200010557805160ff191683800117855562000136565b8280016001018555821562000136579182015b828111156200013557825182559160200191906001019062000118565b5b50905062000145919062000149565b5090565b5b80821115620001645760008160009055506001016200014a565b5090565b600060028204905060018216806200018157607f821691505b602082108114156200019857620001976200019e565b5b50919050565b7f4e487b7100000000000000000000000000000000000000000000000000000000600052602260045260246000fd5b61272d80620001dd6000396000f3fe608060405234801561001057600080fd5b50600436106100ea5760003560e01c80636a6278421161008c578063a22cb46511610066578063a22cb4651461026f578063b88d4fde1461028b578063c87b56dd146102a7578063e985e9c5146102d7576100ea565b80636a627842146101f157806370a082311461022157806395d89b4114610251576100ea565b8063095ea7b3116100c8578063095ea7b31461016d57806323b872dd1461018957806342842e0e146101a55780636352211e146101c1576100ea565b806301ffc9a7146100ef57806306fdde031461011f578063081812fc1461013d575b600080fd5b610109600480360381019061010491906119ce565b610307565b60405161011691906120c6565b60405180910390f35b6101276103e9565b60405161013491906120e1565b60405180910390f35b61015760048036038101906101529190611a20565b61047b565b604051610164919061205f565b60405180910390f35b61018760048036038101906101829190611992565b610500565b005b6101a3600480360381019061019e919061188c565b610618565b005b6101bf60048036038101906101ba919061188c565b610678565b005b6101db60048036038101906101d69190611a20565b610698565b6040516101e8919061205f565b60405180910390f35b61020b60048036038101906102069190611827565b61074a565b60405161021891906122c3565b60405180910390f35b61023b60048036038101906102369190611827565b610790565b60405161024891906122c3565b60405180910390f35b610259610848565b60405161026691906120e1565b60405180910390f35b61028960048036038101906102849190611956565b6108da565b005b6102a560048036038101906102a091906118db565b6108f0565b005b6102c160048036038101906102bc9190611a20565b610952565b6040516102ce91906120e1565b60405180910390f35b6102f160048036038101906102ec9190611850565b6109f9565b6040516102fe91906120c6565b60405180910390f35b60007f80ac58cd000000000000000000000000000000000000000000000000000000007bffffffffffffffffffffffffffffffffffffffffffffffffffffffff1916827bffffffffffffffffffffffffffffffffffffffffffffffffffffffff191614806103d257507f5b5e139f000000000000000000000000000000000000000000000000000000007bffffffffffffffffffffffffffffffffffffffffffffffffffffffff1916827bffffffffffffffffffffffffffffffffffffffffffffffffffffffff1916145b806103e257506103e182610a8d565b5b9050919050565b6060600080546103f8906124f3565b80601f0160208091040260200160405190810160405280929190818152602001828054610424906124f3565b80156104715780601f1061044657610100808354040283529160200191610471565b820191906000526020600020905b81548152906001019060200180831161045457829003601f168201915b5050505050905090565b600061048682610af7565b6104c5576040517f08c379a00000000000000000000000000000000000000000000000000000000081526004016104bc90612243565b60405180910390fd5b6004600083815260200190815260200160002060009054906101000a900473ffffffffffffffffffffffffffffffffffffffff169050919050565b600061050b82610698565b90508073ffffffffffffffffffffffffffffffffffffffff168373ffffffffffffffffffffffffffffffffffffffff16141561057c576040517f08c379a000000000000000000000000000000000000000000000000000000000815260040161057390612283565b60405180910390fd5b8073ffffffffffffffffffffffffffffffffffffffff1661059b610b63565b73ffffffffffffffffffffffffffffffffffffffff1614806105ca57506105c9816105c4610b63565b6109f9565b5b610609576040517f08c379a0000000000000000000000000000000000000000000000000000000008152600401610600906121c3565b60405180910390fd5b6106138383610b6b565b505050565b610629610623610b63565b82610c24565b610668576040517f08c379a000000000000000000000000000000000000000000000000000000000815260040161065f906122a3565b60405180910390fd5b610673838383610d02565b505050565b610693838383604051806020016040528060008152506108f0565b505050565b6000806002600084815260200190815260200160002060009054906101000a900473ffffffffffffffffffffffffffffffffffffffff169050600073ffffffffffffffffffffffffffffffffffffffff168173ffffffffffffffffffffffffffffffffffffffff161415610741576040517f08c379a000000000000000000000000000000000000000000000000000000000815260040161073890612203565b60405180910390fd5b80915050919050565b600060036107586006610f69565b1061076257600080fd5b61076c6006610f77565b61077f8261077a6006610f69565b610f8d565b6107896006610f69565b9050919050565b60008073ffffffffffffffffffffffffffffffffffffffff168273ffffffffffffffffffffffffffffffffffffffff161415610801576040517f08c379a00000000000000000000000000000000000000000000000000000000081526004016107f8906121e3565b60405180910390fd5b600360008373ffffffffffffffffffffffffffffffffffffffff1673ffffffffffffffffffffffffffffffffffffffff168152602001908152602001600020549050919050565b606060018054610857906124f3565b80601f0160208091040260200160405190810160405280929190818152602001828054610883906124f3565b80156108d05780601f106108a5576101008083540402835291602001916108d0565b820191906000526020600020905b8154815290600101906020018083116108b357829003601f168201915b5050505050905090565b6108ec6108e5610b63565b8383610fab565b5050565b6109016108fb610b63565b83610c24565b610940576040517f08c379a0000000000000000000000000000000000000000000000000000000008152600401610937906122a3565b60405180910390fd5b61094c84848484611118565b50505050565b606061095d82610af7565b61099c576040517f08c379a000000000000000000000000000000000000000000000000000000000815260040161099390612263565b60405180910390fd5b60006109a6611174565b905060008151116109c657604051806020016040528060008152506109f1565b806109d084611194565b6040516020016109e192919061203b565b6040516020818303038152906040525b915050919050565b6000600560008473ffffffffffffffffffffffffffffffffffffffff1673ffffffffffffffffffffffffffffffffffffffff16815260200190815260200160002060008373ffffffffffffffffffffffffffffffffffffffff1673ffffffffffffffffffffffffffffffffffffffff16815260200190815260200160002060009054906101000a900460ff16905092915050565b60007f01ffc9a7000000000000000000000000000000000000000000000000000000007bffffffffffffffffffffffffffffffffffffffffffffffffffffffff1916827bffffffffffffffffffffffffffffffffffffffffffffffffffffffff1916149050919050565b60008073ffffffffffffffffffffffffffffffffffffffff166002600084815260200190815260200160002060009054906101000a900473ffffffffffffffffffffffffffffffffffffffff1673ffffffffffffffffffffffffffffffffffffffff1614159050919050565b600033905090565b816004600083815260200190815260200160002060006101000a81548173ffffffffffffffffffffffffffffffffffffffff021916908373ffffffffffffffffffffffffffffffffffffffff160217905550808273ffffffffffffffffffffffffffffffffffffffff16610bde83610698565b73ffffffffffffffffffffffffffffffffffffffff167f8c5be1e5ebec7d5bd14f71427d1e84f3dd0314c0f7b2291e5b200ac8c7c3b92560405160405180910390a45050565b6000610c2f82610af7565b610c6e576040517f08c379a0000000000000000000000000000000000000000000000000000000008152600401610c65906121a3565b60405180910390fd5b6000610c7983610698565b90508073ffffffffffffffffffffffffffffffffffffffff168473ffffffffffffffffffffffffffffffffffffffff161480610ce857508373ffffffffffffffffffffffffffffffffffffffff16610cd08461047b565b73ffffffffffffffffffffffffffffffffffffffff16145b80610cf95750610cf881856109f9565b5b91505092915050565b8273ffffffffffffffffffffffffffffffffffffffff16610d2282610698565b73ffffffffffffffffffffffffffffffffffffffff1614610d78576040517f08c379a0000000000000000000000000000000000000000000000000000000008152600401610d6f90612123565b60405180910390fd5b600073ffffffffffffffffffffffffffffffffffffffff168273ffffffffffffffffffffffffffffffffffffffff161415610de8576040517f08c379a0000000000000000000000000000000000000000000000000000000008152600401610ddf90612163565b60405180910390fd5b610df3838383611341565b610dfe600082610b6b565b6001600360008573ffffffffffffffffffffffffffffffffffffffff1673ffffffffffffffffffffffffffffffffffffffff1681526020019081526020016000206000828254610e4e9190612409565b925050819055506001600360008473ffffffffffffffffffffffffffffffffffffffff1673ffffffffffffffffffffffffffffffffffffffff1681526020019081526020016000206000828254610ea59190612382565b92505081905550816002600083815260200190815260200160002060006101000a81548173ffffffffffffffffffffffffffffffffffffffff021916908373ffffffffffffffffffffffffffffffffffffffff160217905550808273ffffffffffffffffffffffffffffffffffffffff168473ffffffffffffffffffffffffffffffffffffffff167fddf252ad1be2c89b69c2b068fc378daa952ba7f163c4a11628f55a4df523b3ef60405160405180910390a4610f64838383611346565b505050565b600081600001549050919050565b6001816000016000828254019250508190555050565b610fa782826040518060200160405280600081525061134b565b5050565b8173ffffffffffffffffffffffffffffffffffffffff168373ffffffffffffffffffffffffffffffffffffffff16141561101a576040517f08c379a000000000000000000000000000000000000000000000000000000000815260040161101190612183565b60405180910390fd5b80600560008573ffffffffffffffffffffffffffffffffffffffff1673ffffffffffffffffffffffffffffffffffffffff16815260200190815260200160002060008473ffffffffffffffffffffffffffffffffffffffff1673ffffffffffffffffffffffffffffffffffffffff16815260200190815260200160002060006101000a81548160ff0219169083151502179055508173ffffffffffffffffffffffffffffffffffffffff168373ffffffffffffffffffffffffffffffffffffffff167f17307eab39ab6107e8899845ad3d59bd9653f200f220920489ca2b5937696c318360405161110b91906120c6565b60405180910390a3505050565b611123848484610d02565b61112f848484846113a6565b61116e576040517f08c379a000000000000000000000000000000000000000000000000000000000815260040161116590612103565b60405180910390fd5b50505050565b60606040518060600160405280602f81526020016126c9602f9139905090565b606060008214156111dc576040518060400160405280600181526020017f3000000000000000000000000000000000000000000000000000000000000000815250905061133c565b600082905060005b6000821461120e5780806111f790612525565b915050600a8261120791906123d8565b91506111e4565b60008167ffffffffffffffff811115611250577f4e487b7100000000000000000000000000000000000000000000000000000000600052604160045260246000fd5b6040519080825280601f01601f1916602001820160405280156112825781602001600182028036833780820191505090505b5090505b600085146113355760018261129b9190612409565b9150600a856112aa919061256e565b60306112b69190612382565b60f81b8183815181106112f2577f4e487b7100000000000000000000000000000000000000000000000000000000600052603260045260246000fd5b60200101907effffffffffffffffffffffffffffffffffffffffffffffffffffffffffffff1916908160001a905350600a8561132e91906123d8565b9450611286565b8093505050505b919050565b505050565b505050565b611355838361153d565b61136260008484846113a6565b6113a1576040517f08c379a000000000000000000000000000000000000000000000000000000000815260040161139890612103565b60405180910390fd5b505050565b60006113c78473ffffffffffffffffffffffffffffffffffffffff16611717565b15611530578373ffffffffffffffffffffffffffffffffffffffff1663150b7a026113f0610b63565b8786866040518563ffffffff1660e01b8152600401611412949392919061207a565b602060405180830381600087803b15801561142c57600080fd5b505af192505050801561145d57506040513d601f19601f8201168201806040525081019061145a91906119f7565b60015b6114e0573d806000811461148d576040519150601f19603f3d011682016040523d82523d6000602084013e611492565b606091505b506000815114156114d8576040517f08c379a00000000000000000000000000000000000000000000000000000000081526004016114cf90612103565b60405180910390fd5b805181602001fd5b63150b7a0260e01b7bffffffffffffffffffffffffffffffffffffffffffffffffffffffff1916817bffffffffffffffffffffffffffffffffffffffffffffffffffffffff191614915050611535565b600190505b949350505050565b600073ffffffffffffffffffffffffffffffffffffffff168273ffffffffffffffffffffffffffffffffffffffff1614156115ad576040517f08c379a00000000000000000000000000000000000000000000000000000000081526004016115a490612223565b60405180910390fd5b6115b681610af7565b156115f6576040517f08c379a00000000000000000000000000000000000000000000000000000000081526004016115ed90612143565b60405180910390fd5b61160260008383611341565b6001600360008473ffffffffffffffffffffffffffffffffffffffff1673ffffffffffffffffffffffffffffffffffffffff16815260200190815260200160002060008282546116529190612382565b92505081905550816002600083815260200190815260200160002060006101000a81548173ffffffffffffffffffffffffffffffffffffffff021916908373ffffffffffffffffffffffffffffffffffffffff160217905550808273ffffffffffffffffffffffffffffffffffffffff16600073ffffffffffffffffffffffffffffffffffffffff167fddf252ad1be2c89b69c2b068fc378daa952ba7f163c4a11628f55a4df523b3ef60405160405180910390a461171360008383611346565b5050565b6000808273ffffffffffffffffffffffffffffffffffffffff16803b806020016040519081016040528181526000908060200190933c51119050919050565b60006117696117648461230f565b6122de565b90508281526020810184848401111561178157600080fd5b61178c8482856124b1565b509392505050565b6000813590506117a38161266c565b92915050565b6000813590506117b881612683565b92915050565b6000813590506117cd8161269a565b92915050565b6000815190506117e28161269a565b92915050565b600082601f8301126117f957600080fd5b8135611809848260208601611756565b91505092915050565b600081359050611821816126b1565b92915050565b60006020828403121561183957600080fd5b600061184784828501611794565b91505092915050565b6000806040838503121561186357600080fd5b600061187185828601611794565b925050602061188285828601611794565b9150509250929050565b6000806000606084860312156118a157600080fd5b60006118af86828701611794565b93505060206118c086828701611794565b92505060406118d186828701611812565b9150509250925092565b600080600080608085870312156118f157600080fd5b60006118ff87828801611794565b945050602061191087828801611794565b935050604061192187828801611812565b925050606085013567ffffffffffffffff81111561193e57600080fd5b61194a878288016117e8565b91505092959194509250565b6000806040838503121561196957600080fd5b600061197785828601611794565b9250506020611988858286016117a9565b9150509250929050565b600080604083850312156119a557600080fd5b60006119b385828601611794565b92505060206119c485828601611812565b9150509250929050565b6000602082840312156119e057600080fd5b60006119ee848285016117be565b91505092915050565b600060208284031215611a0957600080fd5b6000611a17848285016117d3565b91505092915050565b600060208284031215611a3257600080fd5b6000611a4084828501611812565b91505092915050565b611a528161243d565b82525050565b611a618161244f565b82525050565b6000611a728261233f565b611a7c8185612355565b9350611a8c8185602086016124c0565b611a958161265b565b840191505092915050565b6000611aab8261234a565b611ab58185612366565b9350611ac58185602086016124c0565b611ace8161265b565b840191505092915050565b6000611ae48261234a565b611aee8185612377565b9350611afe8185602086016124c0565b80840191505092915050565b6000611b17603283612366565b91507f4552433732313a207472616e7366657220746f206e6f6e20455243373231526560008301527f63656976657220696d706c656d656e74657200000000000000000000000000006020830152604082019050919050565b6000611b7d602583612366565b91507f4552433732313a207472616e736665722066726f6d20696e636f72726563742060008301527f6f776e65720000000000000000000000000000000000000000000000000000006020830152604082019050919050565b6000611be3601c83612366565b91507f4552433732313a20746f6b656e20616c7265616479206d696e746564000000006000830152602082019050919050565b6000611c23602483612366565b91507f4552433732313a207472616e7366657220746f20746865207a65726f2061646460008301527f72657373000000000000000000000000000000000000000000000000000000006020830152604082019050919050565b6000611c89601983612366565b91507f4552433732313a20617070726f766520746f2063616c6c6572000000000000006000830152602082019050919050565b6000611cc9602c83612366565b91507f4552433732313a206f70657261746f7220717565727920666f72206e6f6e657860008301527f697374656e7420746f6b656e00000000000000000000000000000000000000006020830152604082019050919050565b6000611d2f603883612366565b91507f4552433732313a20617070726f76652063616c6c6572206973206e6f74206f7760008301527f6e6572206e6f7220617070726f76656420666f7220616c6c00000000000000006020830152604082019050919050565b6000611d95602a83612366565b91507f4552433732313a2062616c616e636520717565727920666f7220746865207a6560008301527f726f2061646472657373000000000000000000000000000000000000000000006020830152604082019050919050565b6000611dfb602983612366565b91507f4552433732313a206f776e657220717565727920666f72206e6f6e657869737460008301527f656e7420746f6b656e00000000000000000000000000000000000000000000006020830152604082019050919050565b6000611e61602083612366565b91507f4552433732313a206d696e7420746f20746865207a65726f20616464726573736000830152602082019050919050565b6000611ea1602c83612366565b91507f4552433732313a20617070726f76656420717565727920666f72206e6f6e657860008301527f697374656e7420746f6b656e00000000000000000000000000000000000000006020830152604082019050919050565b6000611f07602f83612366565b91507f4552433732314d657461646174613a2055524920717565727920666f72206e6f60008301527f6e6578697374656e7420746f6b656e00000000000000000000000000000000006020830152604082019050919050565b6000611f6d602183612366565b91507f4552433732313a20617070726f76616c20746f2063757272656e74206f776e6560008301527f72000000000000000000000000000000000000000000000000000000000000006020830152604082019050919050565b6000611fd3603183612366565b91507f4552433732313a207472616e736665722063616c6c6572206973206e6f74206f60008301527f776e6572206e6f7220617070726f7665640000000000000000000000000000006020830152604082019050919050565b612035816124a7565b82525050565b60006120478285611ad9565b91506120538284611ad9565b91508190509392505050565b60006020820190506120746000830184611a49565b92915050565b600060808201905061208f6000830187611a49565b61209c6020830186611a49565b6120a9604083018561202c565b81810360608301526120bb8184611a67565b905095945050505050565b60006020820190506120db6000830184611a58565b92915050565b600060208201905081810360008301526120fb8184611aa0565b905092915050565b6000602082019050818103600083015261211c81611b0a565b9050919050565b6000602082019050818103600083015261213c81611b70565b9050919050565b6000602082019050818103600083015261215c81611bd6565b9050919050565b6000602082019050818103600083015261217c81611c16565b9050919050565b6000602082019050818103600083015261219c81611c7c565b9050919050565b600060208201905081810360008301526121bc81611cbc565b9050919050565b600060208201905081810360008301526121dc81611d22565b9050919050565b600060208201905081810360008301526121fc81611d88565b9050919050565b6000602082019050818103600083015261221c81611dee565b9050919050565b6000602082019050818103600083015261223c81611e54565b9050919050565b6000602082019050818103600083015261225c81611e94565b9050919050565b6000602082019050818103600083015261227c81611efa565b9050919050565b6000602082019050818103600083015261229c81611f60565b9050919050565b600060208201905081810360008301526122bc81611fc6565b9050919050565b60006020820190506122d8600083018461202c565b92915050565b6000604051905081810181811067ffffffffffffffff821117156123055761230461262c565b5b8060405250919050565b600067ffffffffffffffff82111561232a5761232961262c565b5b601f19601f8301169050602081019050919050565b600081519050919050565b600081519050919050565b600082825260208201905092915050565b600082825260208201905092915050565b600081905092915050565b600061238d826124a7565b9150612398836124a7565b9250827fffffffffffffffffffffffffffffffffffffffffffffffffffffffffffffffff038211156123cd576123cc61259f565b5b828201905092915050565b60006123e3826124a7565b91506123ee836124a7565b9250826123fe576123fd6125ce565b5b828204905092915050565b6000612414826124a7565b915061241f836124a7565b9250828210156124325761243161259f565b5b828203905092915050565b600061244882612487565b9050919050565b60008115159050919050565b60007fffffffff0000000000000000000000000000000000000000000000000000000082169050919050565b600073ffffffffffffffffffffffffffffffffffffffff82169050919050565b6000819050919050565b82818337600083830152505050565b60005b838110156124de5780820151818401526020810190506124c3565b838111156124ed576000848401525b50505050565b6000600282049050600182168061250b57607f821691505b6020821081141561251f5761251e6125fd565b5b50919050565b6000612530826124a7565b91507fffffffffffffffffffffffffffffffffffffffffffffffffffffffffffffffff8214156125635761256261259f565b5b600182019050919050565b6000612579826124a7565b9150612584836124a7565b925082612594576125936125ce565b5b828206905092915050565b7f4e487b7100000000000000000000000000000000000000000000000000000000600052601160045260246000fd5b7f4e487b7100000000000000000000000000000000000000000000000000000000600052601260045260246000fd5b7f4e487b7100000000000000000000000000000000000000000000000000000000600052602260045260246000fd5b7f4e487b7100000000000000000000000000000000000000000000000000000000600052604160045260246000fd5b6000601f19601f8301169050919050565b6126758161243d565b811461268057600080fd5b50565b61268c8161244f565b811461269757600080fd5b50565b6126a38161245b565b81146126ae57600080fd5b50565b6126ba816124a7565b81146126c557600080fd5b5056fe68747470733a2f2f666266312d3138322d3232372d32362d3234302e6e67726f6b2e696f2f6170692f657263373231a264697066735822122091111a9e176885b92b8dd14f65dd29a23b8a7e47087021e7269b99a0444f676264736f6c63430008000033",
  "linkReferences": {},
  "deployedLinkReferences": {}
}